:100000000C942A000C9429130C94F6120C944700BB
:100010000C9447000C9447000C9447000C94470044
:100020000C9447000C9447000C9447000C94470034
:100030000C9447000C9447000C9447000C94470024
:100040000C9447000C9447000C9447000C94470014
:100050000C94470011241FBECFE5D8E0DEBFCDBF12
:1000600012E0A0E6B0E0EEECF1E402C005900D92E3
:10007000A631B107D9F712E0A6E1B2E001C01D92A6
:10008000AE31B107E1F70E943F1F0C94E5200C94BC
:100090000000EF92FF920F931F937B018C0120E0F1
:1000A00030E040E05FE40E94250488238CF0C80122
:1000B000B70120E030E040E05FE40E94C1010E940F
:1000C00085049B01AC01205030404040504806C0A0
:1000D000C801B7010E9485049B01AC01B901CA01A6
:1000E0001F910F91FF90EF900895A0E0B0E0EBE733
:1000F000F0E00C94AE20DC012B01FA019C919230CF
:1001000008F439C1EB018881823008F433C194309E
:1001100069F4843009F02FC111969C91119789815F
:10012000981709F428C1AEEFB0E025C1843009F476
:1001300021C18230A9F4923009F01DC19A01AD01AC
:1001400088E0EA010990AE01E90109929E0181501F
:10015000C1F7E201898111969C918923818308C1AD
:10016000923009F407C112962D903C901397EB0141
:100170008A819B811496AD90BD90CD90DC901797AD
:10018000EC80FD800E811F819101281B390BB90184
:1001900037FF04C066277727621B730B6032710537
:1001A0000CF061C0121613066CF537014801062EDB
:1001B00004C096948794779467940A94D2F721E0C8
:1001C00030E040E050E004C0220F331F441F551FB1
:1001D0006A95D2F721503040404050402E213F21B7
:1001E00040235123211531054105510521F021E01E
:1001F00030E040E050E079018A01E628F72808293C
:1002000019293CC0232BD1F1260E371E350146019A
:10021000062E04C096948794779467940A94D2F734
:1002200021E030E040E050E004C0220F331F441FC3
:10023000551F6A95D2F721503040404050402A2146
:100240003B214C215D21211531054105510521F04E
:1002500021E030E040E050E059016A01A628B728CB
:10026000C828D9280BC0821593052CF01C01AA249C
:10027000BB24650103C0EE24FF24870111969C91E5
:10028000D20111968C91981709F445C0992339F041
:10029000A80197012A193B094C095D0906C0A6016E
:1002A00095012E193F09400B510B57FD08C01182D3
:1002B0003382228224833583468357831DC081E0A5
:1002C00081833382228288279927DC01821B930B4A
:1002D000A40BB50B84839583A683B7830DC0220F2F
:1002E000331F441F551F24833583468357838281E0
:1002F000938101979383828324813581468157813D
:10030000DA01C9010197A109B1098F5F9F4FAF4F72
:10031000BF4328F30BC0918333822282EA0CFB1C7B
:100320000C1D1D1DE482F5820683178383E0808304
:10033000248135814681578157FF1AC0C901AA27F8
:1003400097FDA095BA2F81709070A070B0705695EF
:10035000479537952795822B932BA42BB52B848318
:100360009583A683B7838281938101969383828349
:10037000DF0101C0D201CD01CDB7DEB7E2E10C94BF
:10038000CA20A0E2B0E0E7ECF1E00C94BA20698367
:100390007A838B839C832D833E834F835887E9E048
:1003A000EE2EF12CEC0EFD1ECE010196B7010E943F
:1003B00076068E010F5E1F4FCE010596B8010E9492
:1003C00076068A8991E089278A8BC701B801AE0138
:1003D000475E5F4F0E9475000E94A105A096E6E06F
:1003E0000C94D620A0E2B0E0E8EFF1E00C94BA2043
:1003F00069837A838B839C832D833E834F835887C5
:10040000F9E0EF2EF12CEC0EFD1ECE010196B701A6
:100410000E9476068E010F5E1F4FCE010596B80131
:100420000E947606C701B801AE01475E5F4F0E9489
:1004300075000E94A105A096E6E00C94D620A0E2EB
:10044000B0E0E5E2F2E00C94AE2069837A838B831E
:100450009C832D833E834F835887CE010196BE0136
:10046000675F7F4F0E947606CE010596BE016F5EE4
:100470007F4F0E9476069985923088F08989823074
:10048000C8F0943019F4823051F404C0843029F457
:10049000923081F48EEF90E0C6C0923049F420E0B3
:1004A0009A858A89981321E02A87CE010996BBC0D4
:1004B000823049F420E09A858A89981321E02A8BBA
:1004C000CE014196B0C02D843E844F8458886D88FB
:1004D0007E888F88988CEE24FF248701AA24BB2471
:1004E000650140E050E060E070E0E0E0F0E0C10174
:1004F00081709070892BE9F0E60CF71C081D191D1E
:100500009A01AB012A0D3B1D4C1D5D1D80E090E062
:10051000A0E0B0E0E614F7040805190520F481E036
:1005200090E0A0E0B0E0BA01A901480F591F6A1F8E
:100530007B1FAA0CBB1CCC1CDD1C97FE08C081E0F5
:1005400090E0A0E0B0E0A82AB92ACA2ADB2A3196B6
:10055000E032F10549F0660C771C881C991C569412
:10056000479437942794C3CFFA85EA892B893C892D
:100570008B859C85280F391F2E5F3F4F17C0CA01FE
:1005800081709070892B61F016950795F794E79428
:1005900080E090E0A0E0B0E8E82AF92A0A2B1B2BC3
:1005A00076956795579547952F5F3F4F77FDE7CF36
:1005B0000CC0440F551F661F771F17FD4160EE0CDE
:1005C000FF1C001F111F21503040403090E05907A0
:1005D00090E0690790E4790760F32B8F3C8FDB0193
:1005E000CA018F779070A070B07080349105A1051A
:1005F000B10561F447FD0AC0E114F10401051105DC
:1006000029F0405C5F4F6F4F7F4F40781A8EFE1786
:1006100011F081E08A8F4D8F5E8F6F8F78A383E01A
:10062000898FCE0149960E94A105A096E2E10C9423
:10063000CA20A8E1B0E0EFE1F3E00C94B6206983B2
:100640007A838B839C832D833E834F835887B9E0C5
:10065000EB2EF12CEC0EFD1ECE010196B7010E948F
:1006600076068E010F5E1F4FCE010596B8010E94DF
:1006700076062985223008F47EC03989323010F49C
:10068000B8017CC08A859A8989278A87243011F02D
:10069000223031F4231709F06EC06EEF70E06EC0A7
:1006A000343039F41D861E861F86188A1C861B86E8
:1006B00004C0323021F484E08987B7015FC02B8504
:1006C0003C858B899C89281B390B3C872B87ED84C3
:1006D000FE840F851889AD88BE88CF88D88CEA142F
:1006E000FB040C051D0540F4EE0CFF1C001F111F40
:1006F000215030403C872B8720E030E040E050E044
:1007000080E090E0A0E0B0E460E070E0EA14FB0478
:100710000C051D0540F0282B392B4A2B5B2BEA18C2
:10072000FB080C091D09B695A79597958795EE0CC2
:10073000FF1C001F111F6F5F7F4F6F31710531F775
:10074000DA01C9018F779070A070B0708034910584
:10075000A105B10561F427FD0AC0E114F10401050A
:10076000110529F0205C3F4F4F4F5F4F20782D87B8
:100770003E874F87588BBE01675F7F4FCB010E943A
:10078000A1056896EAE00C94D220A8E1B0E0EBEC79
:10079000F3E00C94BA2069837A838B839C832D8346
:1007A0003E834F83588789E0E82EF12CEC0EFD1E26
:1007B000CE010196B7010E9476068E010F5E1F4F93
:1007C000CE010596B8010E9476068985823040F0F8
:1007D0008989823028F0C701B8010E94EE0601C065
:1007E00081E06896E6E00C94D620A8E1B0E0EBEF5B
:1007F000F3E00C94BA2069837A838B839C832D83E6
:100800003E834F83588789E0E82EF12CEC0EFD1EC5
:10081000CE010196B7010E9476068E010F5E1F4F32
:10082000CE010596B8010E9476068985823040F097
:100830008989823028F0C701B8010E94EE0601C004
:100840008FEF6896E6E00C94D620A8E1B0E0EBE2EA
:10085000F4E00C94BA2069837A838B839C832D8384
:100860003E834F83588789E0E82EF12CEC0EFD1E65
:10087000CE010196B7010E9476068E010F5E1F4FD2
:10088000CE010596B8010E9476068985823040F037
:100890008989823028F0C701B8010E94EE0601C0A4
:1008A0008FEF6896E6E00C94D620A8E1B0E0EBE587
:1008B000F4E00C94BA2069837A838B839C832D8324
:1008C0003E834F83588789E0E82EF12CEC0EFD1E05
:1008D000CE010196B7010E9476068E010F5E1F4F72
:1008E000CE010596B8010E9476068985823040F0D7
:1008F0008989823028F0C701B8010E94EE0601C044
:1009000081E06896E6E00C94D620ACE0B0E0EBE83D
:10091000F4E00C94BE2069837A838B839C83CE01A0
:100920000196BE016B5F7F4F0E9476068D818230FB
:1009300061F1823050F1843021F48E81882351F1AD
:100940002EC02F81388537FD20C06E812F313105B3
:100950001CF06623F9F023C08EE190E0821B930B1C
:1009600029853A854B855C8504C056954795379512
:1009700027958A95D2F76623B1F05095409530952A
:1009800021953F4F4F4F5F4F0EC020E030E040E0D9
:1009900050E009C02FEF3FEF4FEF5FE704C020E0CA
:1009A00030E040E050E8B901CA012C96E2E00C9436
:1009B000DA20A8E0B0E0EFEDF4E00C94B6207B0183
:1009C0008C01611571058105910519F482E0898317
:1009D00060C083E089838EE1C82ED12CDC82CB827B
:1009E000ED82FE820F831887C801B7010E9452056D
:1009F000FC013197F7FF3BC0222733272E1B3F0B0B
:100A000057016801022E04C0D694C794B794A794E6
:100A10000A94D2F740E050E060E070E081E090E0BE
:100A2000A0E0B0E004C0880F991FAA1FBB1F2A9541
:100A3000D2F70197A109B1098E219F21A023B123EB
:100A40000097A105B10521F041E050E060E070E0C1
:100A50004A295B296C297D294D835E836F837887C2
:100A60008EE190E08E1B9F0B9C838B8312C030978E
:100A700081F00E2E04C0EE0CFF1C001F111F0A9403
:100A8000D2F7ED82FE820F831887CE1ADF0ADC824E
:100A9000CB821A82CE0101960E94A1052896EAE037
:100AA0000C94D220EF92FF920F931F937B018C0145
:100AB00080E0E81680E0F80681E0080780E018078B
:100AC00088F48FEFE816F1040105110531F028F0E4
:100AD00088E090E0A0E0B0E017C080E090E0A0E007
:100AE000B0E012C080E0E81680E0F80680E0080779
:100AF00081E0180728F088E190E0A0E0B0E004C0B1
:100B000080E190E0A0E0B0E020E230E040E050E0A2
:100B1000281B390B4A0B5B0B04C016950795F794FD
:100B2000E7948A95D2F7F701EA5FFE4F8081281B90
:100B3000310941095109C9011F910F91FF90EF90AF
:100B40000895DF92EF92FF920F931F93FC01E480D0
:100B5000F58006811781D1808081823048F480E061
:100B600090E0A0E1B0E0E82AF92A0A2B1B2BA5C0EF
:100B7000843009F49FC0823021F4EE24FF248701E1
:100B800005C0E114F1040105110519F4E0E0F0E0FD
:100B900096C0628173819FEF623879070CF05BC069
:100BA00022E83FEF261B370B2A3131052CF020E0DD
:100BB00030E040E050E02AC0B801A701022E04C096
:100BC00076956795579547950A94D2F781E090E01E
:100BD000A0E0B0E004C0880F991FAA1FBB1F2A9590
:100BE000D2F70197A109B1098E219F21A023B1233A
:100BF0000097A105B10521F081E090E0A0E0B0E010
:100C00009A01AB01282B392B4A2B5B2BDA01C90146
:100C10008F779070A070B07080349105A105B105F8
:100C200039F427FF09C0205C3F4F4F4F5F4F04C08E
:100C3000215C3F4F4F4F5F4FE0E0F0E02030A0E0FD
:100C40003A07A0E04A07A0E45A0710F0E1E0F0E01C
:100C500079018A0127C06038710564F5FB01E1580C
:100C6000FF4FD801C7018F779070A070B0708034AB
:100C70009105A105B10539F4E7FE0DC080E490E0CF
:100C8000A0E0B0E004C08FE390E0A0E0B0E0E80EA8
:100C9000F91E0A1F1B1F17FF05C016950795F7942D
:100CA000E794319687E016950795F794E7948A952F
:100CB000D1F705C0EE24FF248701EFEFF0E06E2F9F
:100CC000679566276795902F9F77D794DD24D794F3
:100CD0008E2F8695492F462B582F5D29B701CA01C3
:100CE0001F910F91FF90EF90DF900895FC01DB01C1
:100CF000408151812281622F6F7770E0221F22276D
:100D0000221F9381892F880F822B282F30E0991F73
:100D10009927991F11969C93119721153105A9F5D3
:100D2000411551056105710511F482E037C082E873
:100D30009FEF13969C938E9312979A01AB0167E0F5
:100D4000220F331F441F551F6A95D1F783E08C9300
:100D50000DC0220F331F441F551F12968D919C9179
:100D60001397019713969C938E931297203080E0EF
:100D7000380780E0480780E4580758F314962D930D
:100D80003D934D935C93179708952F3F310579F468
:100D9000411551056105710519F484E08C9308959E
:100DA00064FF03C081E08C9312C01C9210C02F57C7
:100DB000304013963C932E93129783E08C9387E0F8
:100DC000440F551F661F771F8A95D1F770641496DC
:100DD0004D935D936D937C93179708951F93DC015A
:100DE000FB019C91923008F447C08081823008F466
:100DF00043C0943051F411961C91843099F581814F
:100E0000682F70E0611B71093FC0843021F092307F
:100E100031F48230B9F18181882389F12DC0119696
:100E20001C9111978230F1F081811817D9F4129634
:100E30002D913C911397828193818217930794F0AF
:100E400028173907BCF014968D919D910D90BC9197
:100E5000A02D2481358146815781281739074A07FB
:100E60005B0718F4112341F00AC082179307A40707
:100E7000B50740F4112319F061E070E005C06FEF91
:100E80007FEF02C060E070E0CB011F910895DF9317
:100E9000CF9300D00F92CDB7DEB79A838983E981D3
:100EA000FA8180A58F3F89F0E981FA8180A5282FFA
:100EB000332727FD3095E981FA8181A5992787FDA0
:100EC000909501962817390719F481E08B8301C0AA
:100ED0001B828B810F900F900F90CF91DF9108951F
:100EE000DF93CF9300D00F92CDB7DEB79A8389837B
:100EF000E981FA8182858F3F89F0E981FA818285D3
:100F0000282F332727FD3095E981FA81838599279A
:100F100087FD909501962817390719F481E08B8396
:100F200001C01B828B810F900F900F90CF91DF91AA
:100F30000895DF93CF9300D0CDB7DEB79A8389832E
:100F4000E981FA818FEF80A7E981FA818FEF81A78C
:100F50000F900F90CF91DF910895DF93CF9300D042
:100F6000CDB7DEB79A838983E981FA818FEF8287D3
:100F7000E981FA818FEF83870F900F90CF91DF91F6
:100F80000895DF93CF9300D000D000D0CDB7DEB767
:100F90009A8389834B835C836D837E83E981FA81A5
:100FA00080A58F3FF1F4E981FA8110A6E981FA81E9
:100FB00011A6E981FA8180A5992787FD909529815D
:100FC0003A81880F991F880F991FF901E80FF91FBF
:100FD0008B819C81AD81BE8180839183A283B38309
:100FE0001EC0E981FA8181A58F5FE981FA8181A71D
:100FF000E981FA8181A5992787FD909529813A8118
:10100000880F991F880F991FF901E80FF91F8B812D
:101010009C81AD81BE8180839183A283B383269618
:101020000FB6F894DEBF0FBECDBFCF91DF9108950C
:10103000DF93CF9300D00F92CDB7DEB79A83898329
:101040006B83E981FA8182858F3FA9F4E981FA8176
:101050001286E981FA811386E981FA818285282F37
:10106000332727FD309589819A81FC01E20FF31F18
:101070008B81808315C0E981FA8183858F5FE98147
:10108000FA818387E981FA818385282F332727FD19
:10109000309589819A81FC01E20FF31F8B81808357
:1010A0000F900F900F90CF91DF910895DF93CF9322
:1010B00000D000D000D0CDB7DEB79E838D83ED8108
:1010C000FE8180A5992787FD90952D813E81880F0F
:1010D000991F880F991FF901E80FF91F80819181ED
:1010E000A281B38189839A83AB83BC83ED81FE8126
:1010F00080A58F5FED81FE8180A789819A81AB8178
:10110000BC81BC01CD0126960FB6F894DEBF0FBEA0
:10111000CDBFCF91DF910895DF93CF9300D00F9291
:10112000CDB7DEB79B838A83EA81FB818285282F36
:10113000332727FD30958A819B81FC01E20FF31F45
:1011400080818983EA81FB8182858F5FEA81FB81CF
:10115000828789810F900F900F90CF91DF91089532
:10116000DF93CF9300D000D000D0CDB7DEB79D8302
:101170008C831B828C819D810E944707882311F0FC
:101180001E821FC0EC81FD8180A5992787FD909567
:101190009A83898308C08B818F5F8B8389819A8131
:1011A00001969A838983EC81FD8181A5282F3327BD
:1011B00027FD309589819A812817390764F78B813B
:1011C0008E838E8126960FB6F894DEBF0FBECDBFFC
:1011D000CF91DF910895DF93CF9300D000D000D05E
:1011E000CDB7DEB79D838C831B828C819D810E944D
:1011F0007007882311F01E821FC0EC81FD8182855B
:10120000992787FD90959A83898308C08B818F5F8A
:101210008B8389819A8101969A838983EC81FD81F0
:101220008385282F332727FD309589819A812817B8
:10123000390764F78B818E838E8126960FB6F894DA
:10124000DEBF0FBECDBFCF91DF910895DF93CF9367
:1012500000D0CDB7DEB79A838983E981FA818FEF19
:1012600080830F900F90CF91DF910895DF93CF93FC
:1012700000D0CDB7DEB79A838983E981FA818FEFF9
:1012800080830F900F90CF91DF910895DF93CF93DC
:1012900000D000D000D0CDB7DEB79A8389834B83CE
:1012A0005C836D837E83E981FA8180818F5FE98130
:1012B000FA818083E981FA818081992787FD909561
:1012C00029813A81880F991F880F991F820F931FD8
:1012D000FC0131968B819C81AD81BE81808391839D
:1012E000A283B38326960FB6F894DEBF0FBECDBFA0
:1012F000CF91DF910895DF93CF9300D00F92CDB7B8
:10130000DEB79A8389836B83E981FA8180818F5F5D
:10131000E981FA818083E981FA818081282F33274E
:1013200027FD309589819A81820F931FFC013196A8
:101330008B8180830F900F900F90CF91DF91089554
:10134000DF93CF9300D00F92CDB7DEB79A83898316
:10135000E981FA8180818F3F19F481E08B8301C09C
:101360001B828B810F900F900F90CF91DF9108958A
:10137000DF93CF9300D00F92CDB7DEB79A838983E6
:10138000E981FA8180818F3F19F481E08B8301C06C
:101390001B828B810F900F900F90CF91DF9108955A
:1013A000DF93CF9300D000D000D0CDB7DEB79E83BF
:1013B0008D83ED81FE818081992787FD90952D8118
:1013C0003E81880F991F880F991F820F931FFC0180
:1013D000319680819181A281B38189839A83AB8385
:1013E000BC83ED81FE8180818150ED81FE8180830F
:1013F00089819A81AB81BC81BC01CD0126960FB653
:10140000F894DEBF0FBECDBFCF91DF910895DF937B
:10141000CF9300D00F92CDB7DEB79B838A83EA814A
:10142000FB818081282F332727FD30958A819B817E
:10143000820F931FFC01319680818983EA81FB81B1
:1014400080818150EA81FB81808389810F900F9098
:101450000F90CF91DF910895DF93CF93CDB7DEB793
:101460002E970FB6F894DEBF0FBECDBF80E062E0CE
:1014700041E00E94440E80E090E0A0E0B0E48B8761
:101480009C87AD87BE876B857C858D859E8520E09A
:1014900030E04AE755E40E941F02DC01CB018F8354
:1014A0009887A987BA876F81788589859A8520E092
:1014B00030E040E85FE30E94550488232CF481E08B
:1014C00090E09E838D833FC06F81788589859A8562
:1014D00020E03FEF4FE757E40E94F50318164CF564
:1014E0006B857C858D859E8520E030E040E251E46F
:1014F0000E941F02DC01CB01BC01CD010E9449000A
:10150000DC01CB019E838D830FC080E991E09C8339
:101510008B838B819C810197F1F79C838B838D81D9
:101520009E8101979E838D838D819E81009769F7AF
:1015300014C06F81788589859A850E944900DC01F5
:10154000CB019E838D838D819E819A83898389813E
:101550009A810197F1F79A83898380E062E040E005
:101560000E94440E2E960FB6F894DEBF0FBECDBF7C
:10157000CF91DF910895DF93CF930F92CDB7DEB770
:1015800089838981982F917080E063E0492F0E94C0
:10159000440E89818695982F917080E064E0492FF0
:1015A0000E94440E898186958695982F917080E0DF
:1015B00065E0492F0E94440E89818695869586951F
:1015C000982F917080E066E0492F0E94440E0E949F
:1015D0002C0A0F90CF91DF910895DF93CF930F9254
:1015E000CDB7DEB7898380E061E040E00E94440E21
:1015F000898182958F700E94BB0A89810E94BB0AF3
:101600000F90CF91DF910895DF93CF930F92CDB7D5
:10161000DEB7898380E061E041E00E94440E898169
:1016200082958F700E94BB0A89810E94BB0A0F902D
:10163000CF91DF910895DF93CF93CDB7DEB72E978B
:101640000FB6F894DEBF0FBECDBF80E090E0A0E201
:10165000B2E48B879C87AD87BE876B857C858D8543
:101660009E8520E030E04AE755E40E941F02DC013D
:10167000CB018F839887A987BA876F817885898501
:101680009A8520E030E040E85FE30E94550488231B
:101690002CF481E090E09E838D833FC06F8178853C
:1016A00089859A8520E03FEF4FE757E40E94F503D4
:1016B00018164CF56B857C858D859E8520E030E085
:1016C00040E251E40E941F02DC01CB01BC01CD01CC
:1016D0000E944900DC01CB019E838D830FC080E90D
:1016E00091E09C838B838B819C810197F1F79C8394
:1016F0008B838D819E8101979E838D838D819E81B9
:10170000009769F714C06F81788589859A850E9452
:101710004900DC01CB019E838D838D819E819A835C
:10172000898389819A810197F1F79A83898382E07D
:101730000E94BB0A82E00E94BB0A88E00E94BB0AAA
:101740008CE00E94ED0A81E00E94ED0A2E960FB611
:10175000F894DEBF0FBECDBFCF91DF910895DF9328
:10176000CF9300D00F92CDB7DEB79B838A831982C7
:101770000EC08981282F30E08A819B81FC01E20F15
:10178000F31F80810E94040B89818F5F8983898187
:10179000282F30E08A819B81FC01E20FF31F8081BA
:1017A000882339F70F900F900F90CF91DF91089514
:1017B000DF93CF93CDB7DEB72D970FB6F894DEBF8A
:1017C0000FBECDBF69877A878B879C8789859A856D
:1017D000AB85BC85BB2394F48DE20E94040B898504
:1017E0009A85AB85BC85B095A095909581959F4FC6
:1017F000AF4FBF4F89879A87AB87BC8789859A850A
:10180000AB85BC850097A105B10519F480E30E9462
:10181000040B1D821E821F82188619821A821B8267
:101820001C824BC08D819E81AF81B8852AE030E05B
:1018300040E050E0BC01CD010E945220DC01CB0110
:101840008D839E83AF83B88789819A81AB81BC8168
:101850000196A11DB11D89839A83AB83BC838985C1
:101860009A85AB85BC852AE030E040E050E0BC01C1
:10187000CD010E947120DC01CB019C01AD018D8165
:101880009E81AF81B885820F931FA41FB51F8D83E2
:101890009E83AF83B88789859A85AB85BC852AE00E
:1018A00030E040E050E0BC01CD010E947120DA013F
:1018B000C90189879A87AB87BC8789859A85AB855B
:1018C000BC85181619061A061B060CF4ABCF2EC0E1
:1018D0008D819E81AF81B8852AE030E040E050E004
:1018E000BC01CD010E947120DC01CB01805D0E9412
:1018F000040B8D819E81AF81B8852AE030E040E005
:1019000050E0BC01CD010E947120DA01C9018D8334
:101910009E83AF83B88789819A81AB81BC8101970F
:10192000A109B10989839A83AB83BC838D819E8190
:10193000AF81B8850097A105B10551F603C080E3DA
:101940000E94040B1D8689819A81AB81BC8100971E
:10195000A105B10511F081E08D8789819A81AB8164
:10196000BC810197A109B10989839A83AB83BC83A8
:101970008D85882321F72D960FB6F894DEBF0FBE14
:10198000CDBFCF91DF910895DF93CF9300D00F9219
:10199000CDB7DEB78A836B8319828B81882F90E065
:1019A0000024969587950794969587950794982F88
:1019B000802D982F8A81890F898389818068898306
:1019C00089810E94ED0A0F900F900F90CF91DF91C7
:1019D0000895DF93CF9300D000D000D0CDB7DEB70D
:1019E0008C837E836D831B828D819E81009721F184
:1019F0008C81882F90E0880F991F880F991F880F7E
:101A0000991F8A838A8180648A838A810E94ED0A71
:101A100019820EC08981282F30E08D819E81FC01C2
:101A2000E20FF31F80810E94040B89818F5F8983FD
:101A30008981883078F302C082E08B838B8126967F
:101A40000FB6F894DEBF0FBECDBFCF91DF910895E2
:101A5000DF93CF93CDB7DEB781E00E94ED0ACF913F
:101A6000DF910895DF93CF93CDB7DEB728970FB6F8
:101A7000F894DEBF0FBECDBF8A836B834C8319827F
:101A80008B81883008F0F4C08C81882309F077C0FE
:101A90008A81282F30E038872F838F819885813085
:101AA000910559F12F813885223031052CF48F8131
:101AB0009885009769F060C02F8138852230310504
:101AC00089F18F8198858330910509F440C054C015
:101AD000AAE3B0E0EAE3F0E08081482F8B81282F71
:101AE00030E081E090E0022E02C0880F991F0A9436
:101AF000E2F7809584238C93BDC0A7E3B0E0E7E3D1
:101B0000F0E08081482F8B81282F30E081E090E049
:101B1000022E02C0880F991F0A94E2F78095842351
:101B20008C93A8C0A4E3B0E0E4E3F0E08081482F08
:101B30008B81282F30E081E090E0022E02C0880FD8
:101B4000991F0A94E2F7809584238C9393C0A1E3B4
:101B5000B0E0E1E3F0E08081482F8B81282F30E076
:101B600081E090E0022E02C0880F991F0A94E2F7EC
:101B7000809584238C937EC081E089837BC08C8197
:101B8000813009F072C08A81282F30E03E832D8396
:101B90008D819E818130910549F12D813E812230D8
:101BA00031052CF48D819E81009761F05BC02D8101
:101BB0003E812230310571F18D819E818330910506
:101BC000E9F150C0AAE3B0E0EAE3F0E08081482FF9
:101BD0008B81282F30E081E090E0022E02C0880F38
:101BE000991F0A94E2F7842B8C9344C0A7E3B0E0DA
:101BF000E7E3F0E08081482F8B81282F30E081E0FF
:101C000090E0022E02C0880F991F0A94E2F7842BFD
:101C10008C9330C0A4E3B0E0E4E3F0E08081482F8F
:101C20008B81282F30E081E090E0022E02C0880FE7
:101C3000991F0A94E2F7842B8C931CC0A1E3B0E0B7
:101C4000E1E3F0E08081482F8B81282F30E081E0B4
:101C500090E0022E02C0880F991F0A94E2F7842BAD
:101C60008C9308C081E0898305C081E0898302C02C
:101C700081E08983898128960FB6F894DEBF0FBE74
:101C8000CDBFCF91DF910895DF93CF93CDB7DEB76E
:101C900028970FB6F894DEBF0FBECDBF8A836B8343
:101CA0004C8319828B81883008F0F4C08C818823A2
:101CB00009F077C08A81282F30E038872F838F8101
:101CC00098858130910559F12F8138852230310571
:101CD0002CF48F819885009769F060C02F8138853A
:101CE0002230310589F18F8198858330910509F47F
:101CF00040C054C0ABE3B0E0EBE3F0E08081482F9C
:101D00008B81282F30E081E090E0022E02C0880F06
:101D1000991F0A94E2F7809584238C93BDC0A8E3B1
:101D2000B0E0E8E3F0E08081482F8B81282F30E09D
:101D300081E090E0022E02C0880F991F0A94E2F71A
:101D4000809584238C93A8C0A5E3B0E0E5E3F0E0A0
:101D50008081482F8B81282F30E081E090E0022E97
:101D600002C0880F991F0A94E2F7809584238C9310
:101D700093C0A2E3B0E0E2E3F0E08081482F8B81E2
:101D8000282F30E081E090E0022E02C0880F991FDA
:101D90000A94E2F7809584238C937EC081E0898346
:101DA0007BC08C81813009F072C08A81282F30E09D
:101DB0003E832D838D819E818130910549F12D8156
:101DC0003E81223031052CF48D819E81009761F097
:101DD0005BC02D813E812230310571F18D819E8164
:101DE00083309105E9F150C0ABE3B0E0EBE3F0E004
:101DF0008081482F8B81282F30E081E090E0022EF7
:101E000002C0880F991F0A94E2F7842B8C9344C078
:101E1000A8E3B0E0E8E3F0E08081482F8B81282F31
:101E200030E081E090E0022E02C0880F991F0A94F2
:101E3000E2F7842B8C9330C0A5E3B0E0E5E3F0E05B
:101E40008081482F8B81282F30E081E090E0022EA6
:101E500002C0880F991F0A94E2F7842B8C931CC050
:101E6000A2E3B0E0E2E3F0E08081482F8B81282FED
:101E700030E081E090E0022E02C0880F991F0A94A2
:101E8000E2F7842B8C9308C081E0898305C081E050
:101E9000898302C081E08983898128960FB6F894EE
:101EA000DEBF0FBECDBFCF91DF910895DF93CF93FB
:101EB000CDB7DEB727970FB6F894DEBF0FBECDBF04
:101EC0008A836B835D834C8319828C819D8100970B
:101ED00009F47BC08B81883008F074C08A81282F78
:101EE00030E03F832E834E815F814130510559F1AF
:101EF0008E819F818230910534F42E813F8121159E
:101F0000310569F05CC04E815F814230510579F145
:101F10008E819F818330910509F43DC050C0E9E373
:101F2000F0E08081282F30E08B81882F90E0A9019C
:101F300002C0559547958A95E2F7CA018170EC81F8
:101F4000FD81808344C0E6E3F0E08081282F30E00B
:101F50008B81882F90E0A90102C0559547958A95FD
:101F6000E2F7CA018170EC81FD81808330C0E3E338
:101F7000F0E08081282F30E08B81882F90E0A9014C
:101F800002C0559547958A95E2F7CA018170EC81A8
:101F9000FD8180831CC0E0E3F0E08081282F30E0E9
:101FA0008B81882F90E0A90102C0559547958A95AD
:101FB000E2F7CA018170EC81FD81808308C081E075
:101FC000898305C081E0898302C082E08983898199
:101FD00027960FB6F894DEBF0FBECDBFCF91DF912D
:101FE0000895DF93CF9300D000D00F92CDB7DEB726
:101FF0008A836B8319828A81282F30E03D832C836A
:102000008C819D8181309105D1F02C813D812230E0
:1020100031052CF48C819D81009761F01FC02C81CB
:102020003D812230310581F08C819D818330910585
:1020300081F014C0EAE3F0E08B81808311C0E7E314
:10204000F0E08B8180830CC0E4E3F0E08B8180833F
:1020500007C0E1E3F0E08B81808302C081E08983E7
:1020600089810F900F900F900F900F90CF91DF917B
:102070000895DF93CF9300D000D00F92CDB7DEB795
:102080008A836B8319828A81282F30E03D832C83D9
:102090008C819D8181309105D1F02C813D81223050
:1020A00031052CF48C819D81009761F01FC02C813B
:1020B0003D812230310581F08C819D8183309105F5
:1020C00081F014C0EBE3F0E08B81808311C0E8E382
:1020D000F0E08B8180830CC0E5E3F0E08B818083AE
:1020E00007C0E2E3F0E08B81808302C081E0898356
:1020F00089810F900F900F900F900F90CF91DF91EB
:102100000895DF93CF9300D000D00F92CDB7DEB704
:102110008A836B8319828B81883008F072C08A8130
:10212000282F30E03D832C838C819D818130910567
:1021300049F12C813D81223031052CF48C819D8127
:10214000009761F05BC02C813D812230310571F137
:102150008C819D8183309105E9F150C0ABE3B0E003
:10216000EBE3F0E08081482F8B81282F30E081E085
:1021700090E0022E02C0880F991F0A94E2F784278C
:102180008C9341C0A8E3B0E0E8E3F0E08081482F01
:102190008B81282F30E081E090E0022E02C0880F72
:1021A000991F0A94E2F784278C932DC0A5E3B0E031
:1021B000E5E3F0E08081482F8B81282F30E081E03B
:1021C00090E0022E02C0880F991F0A94E2F784273C
:1021D0008C9319C0A2E3B0E0E2E3F0E08081482FE5
:1021E0008B81282F30E081E090E0022E02C0880F22
:1021F000991F0A94E2F784278C9305C081E08983B4
:1022000002C081E0898389810F900F900F900F9019
:102210000F90CF91DF910895DF93CF9300D000D03E
:1022200000D0CDB7DEB78A837C836B8319828B8124
:102230009C81009759F18A81282F30E03E832D83BD
:102240008D819E818130910581F02D813E812230EA
:10225000310591F08D819E810097A9F48B819C813D
:10226000909317028093160213C08B819C819093E8
:102270001902809318020CC08B819C8190931B02E1
:1022800080931A0205C081E0898302C082E08983BD
:10229000898126960FB6F894DEBF0FBECDBFCF91D1
:1022A000DF910895DF93CF93CDB7DEB7ABE5B0E014
:1022B000EBE5F0E0808180648C93ABE5B0E0EBE58A
:1022C000F0E0808180688C93ABE5B0E0EBE5F0E076
:1022D00080818F7D8C93A5E5B0E0E5E5F0E080811D
:1022E0008E7F8C93A5E5B0E0E5E5F0E0808182602B
:1022F0008C93A5E5B0E0E5E5F0E080818B7F8C93E1
:10230000A5E5B0E0E5E5F0E0808188608C93A5E587
:10231000B0E0E5E5F0E080818F7E8C93CF91DF9196
:102320000895DF93CF9300D0CDB7DEB78A831982AB
:102330008A81882341F4ABE5B0E0EBE5F0E08081F1
:1023400080648C9318C08A81813041F4ABE5B0E0A1
:10235000EBE5F0E0808180688C930DC08A8182304B
:1023600041F4ABE5B0E0EBE5F0E0808180628C9376
:1023700002C081E0898389810F900F90CF91DF9116
:102380000895DF93CF9300D0CDB7DEB78A8319824B
:102390008A81882341F4ABE5B0E0EBE5F0E0808191
:1023A0008F7B8C9318C08A81813041F4ABE5B0E01B
:1023B000EBE5F0E080818F778C930DC08A818230CD
:1023C00041F4ABE5B0E0EBE5F0E080818F7D8C93EC
:1023D00002C081E0898389810F900F90CF91DF91B6
:1023E0000895DF93CF93CDB7DEB729970FB6F89452
:1023F000DEBF0FBECDBF8A836B8319828A8188239B
:1024000009F05FC08B81282F30E0398728878885C5
:1024100099858130910509F442C02885398522309B
:1024200031052CF488859985009751F147C028859E
:1024300039852230310531F08885998583309105C1
:1024400081F03CC0A5E5B0E0E5E5F0E080818E7F5D
:102450008C93A5E5B0E0E5E5F0E0808182608C93A7
:10246000BBC0A5E5B0E0E5E5F0E0808181608C933C
:10247000A5E5B0E0E5E5F0E0808182608C93ACC03A
:10248000A5E5B0E0E5E5F0E080818E7F8C93A5E5E1
:10249000B0E0E5E5F0E080818D7F8C939DC0A5E5FF
:1024A000B0E0E5E5F0E0808181608C93A5E5B0E0E7
:1024B000E5E5F0E080818D7F8C938EC081E089839B
:1024C0008BC08A81813009F05FC08B81282F30E07A
:1024D0003F832E838E819F818130910509F442C014
:1024E0002E813F81223031052CF48E819F8100970F
:1024F00051F147C02E813F812230310531F08E816C
:102500009F818330910581F03CC0A5E5B0E0E5E511
:10251000F0E080818B7F8C93A5E5B0E0E5E5F0E00D
:10252000808188608C9358C0A5E5B0E0E5E5F0E0D7
:10253000808184608C93A5E5B0E0E5E5F0E08081E2
:1025400088608C9349C0A5E5B0E0E5E5F0E08081C6
:102550008B7F8C93A5E5B0E0E5E5F0E08081877F97
:102560008C933AC0A5E5B0E0E5E5F0E080818460B9
:102570008C93A5E5B0E0E5E5F0E08081877F8C9362
:102580002BC081E0898328C08A81823019F58B8134
:10259000282F30E03D832C838C819D8182309105F2
:1025A00031F02C813D812330310549F010C0A5E583
:1025B000B0E0E5E5F0E080818F7E8C930DC0A4E56E
:1025C000B0E0E4E5F0E0808180618C9305C081E0BB
:1025D000898302C081E08983898129960FB6F894A6
:1025E000DEBF0FBECDBFCF91DF9108951F920F9236
:1025F0000FB60F9211242F933F934F935F936F93D6
:102600007F938F939F93AF93BF93EF93FF93DF934A
:10261000CF93CDB7DEB78091180290911902009741
:1026200029F0E0911802F09119020995CF91DF91FC
:10263000FF91EF91BF91AF919F918F917F916F919A
:102640005F914F913F912F910F900FBE0F901F9070
:1026500018951F920F920FB60F9211242F933F934C
:102660004F935F936F937F938F939F93AF93BF939A
:10267000EF93FF93DF93CF93CDB7DEB78091160230
:1026800090911702009729F0E0911602F09117023D
:102690000995CF91DF91FF91EF91BF91AF919F91FC
:1026A0008F917F916F915F914F913F912F910F90FB
:1026B0000FBE0F901F901895DF93CF93CDB7DEB765
:1026C0007894CF91DF910895DF93CF93CDB7DEB7A4
:1026D000F894CF91DF910895DF93CF93CDB7DEB714
:1026E000A1970FB6F894DEBF0FBECDBF84E08B83F9
:1026F00085E08C8386E08D8387E08E8382E08F8304
:1027000083E0888784E0898785E08A871A82198236
:1027100081E08B87CE010C969E8F8D8FE6E0F2E0F4
:10272000F8A3EF8FF0E1F9A3EF8DF8A100808F8D72
:1027300098A1019698A38F8FED8DFE8D00828D8DCF
:102740009E8D01969E8F8D8F99A1915099A3E9A19D
:10275000EE2351F7198274C08981282F30E0CE0111
:102760000796FC01E20FF31F908183E0692F40E0A0
:102770000E94440E1A824FC08A81282F30E0CE0179
:102780000396FC01E20FF31F90819E01255F3F4FEE
:1027900081E0692FA9010E94560F8B858823C1F51E
:1027A00011C08A81282F30E0CE010396FC01E20F90
:1027B000F31F90819E01255F3F4F81E0692FA901A2
:1027C0000E94560F8B85882361F38981282F30E082
:1027D000CE010796FC01E20FF31F908183E0692F81
:1027E00041E00E94440E8A81282F30E08981482FE1
:1027F00050E0220F331F220F331FCE010196820FAC
:10280000931F840F951FFC013B9680818C8F1EC007
:102810008A818F5F8A838A81843008F4ADCF898171
:10282000282F30E0CE010796FC01E20FF31F9081C4
:1028300083E0692F41E00E94440E89818F5F898384
:102840008981843008F488CF9FEF9C8F8C8DA1966E
:102850000FB6F894DEBF0FBECDBFCF91DF910895C4
:10286000DF93CF93CDB7DEB7EAE3F0E08EE7808366
:10287000E7E3F0E01082E4E3F0E01082E1E3F0E06F
:102880008CE38083EBE3F0E01082E8E3F0E084EF98
:102890008083E5E3F0E08FE08083E2E3F0E08CE327
:1028A0008083CF91DF910895DF93CF93CDB7DEB7CB
:1028B00081E080931D02CF91DF910895DF93CF9344
:1028C000CDB7DEB72D970FB6F894DEBF0FBECDBFE4
:1028D0006E837F83888799872A873B874C875D87AC
:1028E00081E090E0A0E0B0E08A839B83AC83BD836D
:1028F000198215C08A819B81AC81BD812E813F8167
:1029000048855985BC01CD010E945220DC01CB01D4
:102910008A839B83AC83BD8389818F5F898389810F
:10292000282F30E040E050E08A859B85AC85BD854E
:10293000281739074A075B07E8F28A819B81AC8137
:10294000BD81BC01CD012D960FB6F894DEBF0FBE40
:10295000CDBFCF91DF910895EF92FF920F931F9318
:10296000DF93CF93CDB7DEB728970FB6F894DEBFCD
:102970000FBECDBF98878F831B821C821D821E8253
:102980001A8219825CC08F8198850E94070A8A8307
:102990008A818A3348F58A81882F90E0C0977C012C
:1029A0000027F7FC0095102F8981282F30E040E0A8
:1029B00050E060E170E080E090E00E945E149B01D6
:1029C000AC01C801B7010E9452209B01AC018B8170
:1029D0009C81AD81BE81820F931FA41FB51F8B8385
:1029E0009C83AD83BE8328C08A81882F90E0C797DF
:1029F0007C010027F7FC0095102F8981282F30E0FB
:102A000040E050E060E170E080E090E00E945E1401
:102A10009B01AC01C801B7010E9452209B01AC018F
:102A20008B819C81AD81BE81820F931FA41FB51F36
:102A30008B839C83AD83BE8389818F5F89838F81E4
:102A400098850E94B809882309F49DCF8B819C81C9
:102A5000AD81BE81BC01CD0128960FB6F894DEBFD2
:102A60000FBECDBFCF91DF911F910F91FF90EF90DF
:102A70000895EF92FF920F931F93DF93CF93CDB7FB
:102A8000DEB728970FB6F894DEBF0FBECDBF98878C
:102A90008F831B821C821D821E821A82198230C083
:102AA0008F8198850E94070A8A838A81882F90E007
:102AB000C0977C010027F7FC0095102F8981282FF3
:102AC00030E040E050E068E070E080E090E00E949C
:102AD0005E149B01AC01C801B7010E9452209B010A
:102AE000AC018B819C81AD81BE81820F931FA41F9D
:102AF000B51F8B839C83AD83BE8389818F5F898360
:102B00008F8198850E94B809882351F28B819C811E
:102B1000AD81BE81BC01CD0128960FB6F894DEBF11
:102B20000FBECDBFCF91DF911F910F91FF90EF901E
:102B30000895EF92FF920F931F93DF93CF93CDB73A
:102B4000DEB728970FB6F894DEBF0FBECDBF9887CB
:102B50008F831B821C821D821E821A82198230C0C2
:102B60008F8198850E94070A8A838A81882F90E046
:102B7000C0977C010027F7FC0095102F8981282F32
:102B800030E040E050E062E070E080E090E00E94E1
:102B90005E149B01AC01C801B7010E9452209B0149
:102BA000AC018B819C81AD81BE81820F931FA41FDC
:102BB000B51F8B839C83AD83BE8389818F5F89839F
:102BC0008F8198850E94B809882351F28B819C815E
:102BD000AD81BE81BC01CD0128960FB6F894DEBF51
:102BE0000FBECDBFCF91DF911F910F91FF90EF905E
:102BF0000895DF93CF9300D000D000D0CDB7DEB7DB
:102C000069837A838B839C835E834D8315C089811E
:102C10008170282F205D8D819E81622F0E947B090B
:102C200089819A81AB81BC81B695A7959795879547
:102C300089839A83AB83BC8389819A81AB81BC8170
:102C40000097A105B10519F726960FB6F894DEBFD7
:102C50000FBECDBFCF91DF910895DF93CF9300D00A
:102C600000D000D0CDB7DEB769837A838B839C8395
:102C70005E834D8319C089818770282F205D8D81E7
:102C80009E81622F0E947B0989819A81AB81BC81E0
:102C9000689412F8B695A795979587951694D1F7ED
:102CA00089839A83AB83BC8389819A81AB81BC8100
:102CB0000097A105B105F9F626960FB6F894DEBF88
:102CC0000FBECDBFCF91DF910895DF93CF93CDB7E6
:102CD000DEB727970FB6F894DEBF0FBECDBF6A836D
:102CE0007B838C839D835F834E83198228C08A8176
:102CF0008F70898389818A3048F08981895C8983D2
:102D00008E819F8169810E947B0909C08A818F70B1
:102D1000282F205D8E819F81622F0E947B098A81EE
:102D20009B81AC81BD81689413F8B695A795979562
:102D300087951694D1F78A839B83AC83BD838A8160
:102D40009B81AC81BD810097A105B10581F62796D5
:102D50000FB6F894DEBF0FBECDBFCF91DF910895BF
:102D60000F931F93DF93CF9300D000D00F92CDB776
:102D7000DEB79A8389837C836B8389819A810E94E1
:102D8000B008082F10E08B819C810E94EB08882FEF
:102D900090E09801281B390BC9018130910511F48D
:102DA0001D8202C031E03D838D810F900F900F9006
:102DB0000F900F90CF91DF911F910F910895DF93A6
:102DC000CF93CDB7DEB7AC970FB6F894DEBF0FBE8A
:102DD000CDBF9CA78BA7CE0101960E9499070CC07E
:102DE0008BA59CA50E94D0099B01AC01CE01019648
:102DF000BA01A9010E94C1078BA59CA50E94A00948
:102E0000882371F30CC0CE0101960E9456089B01E5
:102E1000AC018BA59CA5BA01A9010E944609CE016F
:102E200001960E944707882371F3AC960FB6F89479
:102E3000DEBF0FBECDBFCF91DF910895DF93CF935B
:102E4000CDB7DEB72E970FB6F894DEBF0FBECDBF5D
:102E50009E878D87CE0101960E94AD070AC08D85A1
:102E60009E850E94070A282FCE010196622F0E949C
:102E700018088D859E850E94B809882381F30AC0B1
:102E8000CE0101960E948C08282F8D859E85622F89
:102E90000E947B09CE0101960E947007882381F36E
:102EA0002E960FB6F894DEBF0FBECDBFCF91DF9147
:102EB0000895DF93CF93CDB7DEB7C356D0400FB69A
:102EC000F894DEBF0FBECDBFFE01E45AFF4F9183E1
:102ED0008083FE01E25AFF4F7183608310921C02CF
:102EE000CE01855B9F4F0E943609CE010A960E9453
:102EF0002609FE01E45AFF4F808191810E94DF166E
:102F0000FE01E25AFF4F808191810E941E179CC0F2
:102F1000FE01E25AFF4F808191810E94070A898356
:102F2000FE01E45AFF4F808191810E94D009DC01AB
:102F3000CB018A839B83AC83BD8389818F3209F067
:102F400045C0FE01E45AFF4F808191810E94D00963
:102F5000DC01CB018E839F83A887B9876E817F8137
:102F60008885998520E030E040E050E00E94C5036C
:102F7000882371F481E080931C0280E090E0A0E05F
:102F8000B0E0A4968CAF9DAFAEAFBFAFA497E8C042
:102F90006A817B818C819D812E813F814885598505
:102FA0000E941903DC01CB018E839F83A887B98718
:102FB000FE01E45AFF4F808191812E813F81488537
:102FC0005985BA01A9010E9446093EC089818A3209
:102FD00059F5FE01E45AFF4F808191810E94D0098A
:102FE000DC01CB018E839F83A887B9876E817F81A7
:102FF000888599852A813B814C815D810E941F02D1
:10300000DC01CB018E839F83A887B987FE01E45A38
:10301000FF4F808191812E813F8148855985BA017A
:10302000A9010E94460910C0CE01855B9F4F6981AE
:103030000E947B09CE010A962A813B814C815D81E9
:10304000BA01A9010E944609FE01E25AFF4F8081A0
:1030500091810E94B809882309F45ACFFE01E45AED
:10306000FF4F808191810E94D0099B01AC01CE016C
:103070000A96BA01A9010E944609CE010A960E9449
:10308000DF16CE01855B9F4F0E941E1755C0CE01F3
:10309000855B9F4F0E94070A8983CE010A960E9492
:1030A000D009DC01CB018A839B83AC83BD83CE0135
:1030B0000A960E94D009DC01CB018E839F83A887EA
:1030C000B98789818B32D9F46E817F818885998512
:1030D0002A813B814C815D810E94F201DC01CB01A0
:1030E0008E839F83A887B987CE010A962E813F8160
:1030F00048855985BA01A9010E9446091DC08981E8
:103100008D32D1F46A817B818C819D812E813F81BA
:10311000488559850E94C101DC01CB018E839F83C4
:10312000A887B987CE010A962E813F8148855985A7
:10313000BA01A9010E944609CE01855B9F4F0E94FA
:10314000B809882309F4A3CFCE010A960E94D009BA
:10315000DC01CB01A4968CAF9DAFAEAFBFAFA497FF
:10316000A4968CAD9DADAEADBFADA497BC01CD0115
:10317000CD59DF4F0FB6F894DEBF0FBECDBFCF9154
:10318000DF910895DF93CF93CDB7DEB7C755D04019
:103190000FB6F894DEBF0FBECDBF0E94280D8FEF93
:1031A0008D83CE01895B9F4F0E943609CE01069622
:1031B0000E94260919821A821B821C82B8C00E94B2
:1031C0006C138D838D818F3F21F480911D028823A4
:1031D000B1F38D81813471F4CE01895B9F4F0E94E0
:1031E0003609CE0106960E9426090E94280D8FEF0F
:1031F0008D839DC08D818B3249F08D818D3231F070
:103200008D818A3219F08D818F32F1F48D810E9487
:10321000040B69817A818B819C810E94D9049B0176
:10322000AC01CE010696BA01A9010E944609CE0161
:10323000895B9F4F6D810E947B0919821A821B82D4
:103240001C828FEF8D8373C08D81803338F18D8127
:103250008A3320F58D810E94040B89819A81AB818C
:10326000BC812AE030E040E050E0BC01CD010E948A
:1032700052209B01AC018D81882F90E0C097AA2736
:1032800097FDA095BA2F820F931FA41FB51F8983A6
:103290009A83AB83BC838FEF8D8349C08D818D333F
:1032A00009F045C080E061E00E94C40C8D810E945D
:1032B000040B69817A818B819C810E94D9049B01D6
:1032C000AC01CE010696BA01A9010E944609CE01C1
:1032D00006969E01295B3F4FB9010E945917DC01F8
:1032E000CB01BC01CD010E948504DC01CB01BC01F6
:1032F000CD010E94D80BCE01895B9F4F0E943609F9
:10330000CE0106960E94260919821A821B821C820F
:103310008FEF8D8303C00E946C138D838D818F3F4F
:1033200021F480911D028823B1F30E94280D809121
:103330001D02882309F446CF80911D02813011F4CB
:1033400010921D02C95ADF4F0FB6F894DEBF0FBEB0
:10335000CDBFCF91DF910895DF93CF93CDB7DEB787
:10336000C955D0400FB6F894DEBF0FBECDBFCE0119
:1033700008960E943609CE0149960E9426098FEFD1
:103380008F831E82D3C00E94280D80E690E00E94A9
:10339000AF0B80E061E00E94C40C1E828FEF8F8330
:1033A00026C08FEF8F8303C00E946C138F838091A0
:1033B0001D02882319F48F818F3FB1F38F818B32E7
:1033C00049F08F818D3231F08F818A3219F08F81EF
:1033D0008F3269F48F810E94040BCE0108966F81B1
:1033E0000E947B098FEF8F838E818F5F8E83809108
:1033F0001D02882319F48F818D3399F61A821B825E
:103400001C821D8281E0898363C00E94280D81E7B0
:1034100090E00E94AF0B8981805D0E94040B80E0E8
:1034200061E00E94C40C1A821B821C821D828FEFF5
:103430008F8336C08FEF8F8303C00E946C138F83FE
:1034400080911D02882319F48F818F3FB1F38F8102
:10345000803330F18F818A3318F58F810E94040BFD
:103460008A819B81AC81BD812AE030E040E050E060
:10347000BC01CD010E9452209B01AC018F81882F9D
:1034800090E0C097AA2797FDA095BA2F820F931FAF
:10349000A41FB51F8A839B83AC83BD838FEF8F836B
:1034A00080911D02882319F48F818D3319F66A816A
:1034B0007B818C819D810E94D9049B01AC01CE014E
:1034C0004996BA01A9010E94460989818F5F8983C3
:1034D0008981282F30E08E81882F90E00196821715
:1034E00093070CF092CF0E94280DCE0149969E01C1
:1034F000285F3F4FB9010E945917DC01CB01BC0185
:10350000CD010E948504DC01CB01BC01CD010E94EC
:10351000D80B03C00E946C138F838F81813421F0FC
:1035200080911D028823B1F30E94280D80911D0215
:10353000882309F428CF80911D02813011F4109264
:103540001D02C75ADF4F0FB6F894DEBF0FBECDBFC6
:10355000CF91DF910895DF93CF93CDB7DEB7C955F3
:10356000D0400FB6F894DEBF0FBECDBFCE01089697
:103570000E943609CE0149960E9426098FEF8F835B
:103580001E82F1C00E94280D8EE790E00E94AF0BD2
:1035900080E061E00E94C40C1E828FEF8F831A824C
:1035A0001B821C821D825BC08FEF8F8303C00E9431
:1035B0006C138F8380911D02882319F48F818F3FB4
:1035C000B1F38F81803338F18F818A3320F58F8179
:1035D0000E94040B8A819B81AC81BD812AE030E08E
:1035E00040E050E0BC01CD010E9452209B01AC01A3
:1035F0008F81882F90E0A0E0B0E0820F931FA41F7E
:10360000B51FC097A109B1098A839B83AC83BD8391
:103610008FEF8F8324C08F818D3309F58E818F5F6B
:103620008E836A817B818C819D810E94D9049B015C
:10363000AC01CE014996BA01A9010E9446091A823D
:103640001B821C821D828FEF8F830E94280D8EE7C4
:1036500090E00E94AF0B80E061E00E94C40C80917A
:103660001D02882321F48F81813409F09DCF0E94AF
:10367000280D8CE890E00E94AF0B8E81815D0E9446
:10368000040B83E990E00E94AF0B198280E061E0B7
:103690000E94C40C26C08FEF8F8303C00E946C135E
:1036A0008F8380911D02882319F48F818F3FB1F39E
:1036B0008F818B3249F08F818D3231F08F818A3248
:1036C00019F08F818F3269F48F810E94040BCE0133
:1036D00008966F810E947B098FEF8F8389818F5FAE
:1036E000898380911D02882319F48F818D3399F687
:1036F00099818E81981768F48E81282F30E0898116
:10370000882F90E0A901481B590BCA01813091050F
:1037100039F00E94280D8DE990E00E94AF0B1AC08D
:103720000E94280DCE0149969E01285F3F4FB901A6
:103730000E945917DC01CB01BC01CD010E94850418
:10374000DC01CB01BC01CD010E94D80B03C00E945B
:103750006C138F838F81813421F080911D02882327
:10376000B1F30E94280D80911D02882309F40ACF2D
:1037700080911D02813011F410921D02C75ADF4F53
:103780000FB6F894DEBF0FBECDBFCF91DF91089585
:10379000DF93CF9300D00F92CDB7DEB79B838A83A0
:1037A0000E94280D8FEF898317C08FEF898303C094
:1037B0000E946C13898389818F3FD1F38981813382
:1037C00019F08981803341F489810E94040B8A8138
:1037D0009B8169810E947B0980911D02882319F4D5
:1037E00089818D3311F70F900F900F90CF91DF915A
:1037F0000895DF93CF9300D00F92CDB7DEB79B83B0
:103800008A830E94280D8FEF898317C08FEF8983E9
:1038100003C00E946C13898389818F3FD1F3898112
:10382000803358F08981883340F489810E94040BE9
:103830008A819B8169810E947B0980911D02882376
:1038400019F489818D3311F70F900F900F90CF915C
:10385000DF910895DF93CF9300D00F92CDB7DEB7FD
:103860009B838A830E94280D8FEF898317C08FEF77
:10387000898303C00E946C13898389818F3FD1F3B0
:103880008981803358F089818A3340F489810E948C
:10389000040B8A819B8169810E947B0980911D02B2
:1038A000882319F489818D3311F70F900F900F90B1
:1038B000CF91DF910895DF93CF9300D000D00F9286
:1038C000CDB7DEB70E94280D8FEF8D8319821A8243
:1038D0001B821C8230C08FEF8D8303C00E946C134B
:1038E0008D838D818F3FD1F38D81803320F18D8148
:1038F0008A3308F58D810E94040B89819A81AB81FE
:10390000BC812AE030E040E050E0BC01CD010E94E3
:1039100052209B01AC018D81882F90E0A0E0B0E0A7
:10392000820F931FA41FB51FC097A109B1098983F6
:103930009A83AB83BC8380911D02882319F48D8107
:103940008D3349F689819A81AB81BC81BC01CD015F
:103950000F900F900F900F900F90CF91DF910895DF
:10396000DF93CF9300D0CDB7DEB781E0898337C036
:1039700082E060E09E012F5F3F4FA9010E94560F39
:103980008981882311F41A8230C082E061E09E01AF
:103990002F5F3F4FA9010E94560F8981882319F498
:1039A00081E08A8322C082E062E09E012F5F3F4F68
:1039B000A9010E94560F8981882319F482E08A8325
:1039C00014C082E063E09E012F5F3F4FA9010E9477
:1039D000560F8981882319F483E08A8306C0809179
:1039E0001D02882329F284E08A838A810F900F9038
:1039F000CF91DF910895DF93CF9300D0CDB7DEB79D
:103A00009A83898306C089819A810E94070A0E944D
:103A1000040B89819A810E94B8098823A1F30F9031
:103A20000F90CF91DF910895DF93CF93CDB7DEB79D
:103A3000C655D0400FB6F894DEBF0FBECDBF8FEF96
:103A40008A8B08C20E94280D88EA90E00E94AF0B82
:103A50000E94B01C898B8989882309F07DC0CE0122
:103A600043960E943609CE0143960E94C81B1D86CC
:103A70001E861F86188A80911D02882309F0E1C1E5
:103A80000E94280D86EB90E00E94AF0B0E94B01CB4
:103A9000898B8989882339F40E94280DCE014396A9
:103AA0000E94FB1CCEC189898130E9F40E94280D57
:103AB000CE0143960E949915DC01CB018D879E872C
:103AC000AF87B88B8D859E85AF85B8899E012D5EA9
:103AD0003F4FBC01CD01A9010E942D16CE01439696
:103AE0000E94FB1CAEC189898230A9F40E94280D76
:103AF000CE0143960E949915DC01CB018D879E87EC
:103B0000AF87B88B8D859E85AF85B889BC01CD0107
:103B10000E94D80B96C18989833009F092C10E9416
:103B2000280DCE0143960E949915DC01CB018D87AB
:103B30009E87AF87B88B8D859E85AF85B8899E019E
:103B40002D5E3F4FBC01CD01A9010E946516CE013B
:103B500043960E94FB1C75C18989813009F07DC0A4
:103B6000CE0184960E943609CE0184960E94F91BEC
:103B700080911D02882309F064C10E94280D86EB04
:103B800090E00E94AF0B0E94B01C898B19861A86A8
:103B90001B861C8689898823E9F40E94280DCE01A2
:103BA00084960E943915DC01CB0189879A87AB87FF
:103BB000BC8789859A85AB85BC859E012C5D3F4F6E
:103BC000BC01CD01A9010E94F915CE0184960E9485
:103BD000FB1C37C18989813039F40E94280DCE0140
:103BE00084960E94FB1C2DC189898230A9F40E9411
:103BF000280DCE0184960E943915DC01CB018987FE
:103C00009A87AB87BC8789859A85AB85BC85BC01C3
:103C1000CD010E94D80B15C18989833009F011C1EB
:103C20000E94280DCE0184960E943915DC01CB013B
:103C300089879A87AB87BC8789859A85AB85BC8540
:103C40009E012C5D3F4FBC01CD01A9010E9465166C
:103C5000CE0184960E94FB1CF4C08989823009F051
:103C60006AC01D821E821F8218860E945B1CDC01B6
:103C7000CB018D839E83AF83B8870E94280D86EB8E
:103C800090E00E94AF0B0E94B01C898BCE01C596BC
:103C90000E9436098989882399F40E94280D8D8114
:103CA0009E81AF81B8859E012B5C3F4FBC01CD0149
:103CB000A9010E94F915CE01C5960E94FB1CC1C046
:103CC0008989813099F40E94280D8D819E81AF8170
:103CD000B8859E012B5C3F4FBC01CD01A9010E941C
:103CE0002D16CE01C5960E94FB1CABC0898982307F
:103CF00059F40E94280D8D819E81AF81B885BC0149
:103D0000CD010E94D80B9DC08989833009F099C0EC
:103D10000E94280D8D819E81AF81B8859E012B5C0C
:103D20003F4FBC01CD01A9010E946516CE01C59689
:103D30000E94FB1C86C08989833009F082C0CE01B5
:103D40008A5B9F4F0E943609CE018A5B9F4F0E947B
:103D50002A1C0E94280D86EB90E00E94AF0B0E9467
:103D6000B01C898B19821A821B821C828989882344
:103D7000F9F40E94280DCE018A5B9F4F0E94AC147B
:103D8000DC01CB0189839A83AB83BC8389819A81CF
:103D9000AB81BC819E012A5B3F4FBC01CD01A901D3
:103DA0000E94F915CE018A5B9F4F0E94FB1C49C0FF
:103DB00089898130F9F40E94280DCE018A5B9F4FDA
:103DC0000E94AC14DC01CB0189839A83AB83BC8352
:103DD00089819A81AB81BC819E012A5B3F4FBC01E6
:103DE000CD01A9010E942D16CE018A5B9F4F0E9432
:103DF000FB1C27C089898230B1F40E94280DCE01B6
:103E00008A5B9F4F0E94AC14DC01CB0189839A83AB
:103E1000AB83BC8389819A81AB81BC81BC01CD011C
:103E20000E94D80B0EC08989833059F40E94280D56
:103E3000CE018A5B9F4F0E94FB1C03C00E946C1343
:103E40008A8B8A89813421F080911D028823B1F305
:103E50008FEF8A8B80911D02882309F4F3CD809126
:103E60001D02813011F410921D02CA5ADF4F0FB6A5
:103E7000F894DEBF0FBECDBFCF91DF910895DF93E1
:103E8000CF93CDB7DEB762970FB6F894DEBF0FBE03
:103E9000CDBF0E9430140E945C130E941B0B82E075
:103EA00062E00E94F11124E534E182E0B9010E9450
:103EB0000C118FEF888B1F860E94280D8FEF888B47
:103EC0001F868F85813009F07AC00E94280D82EC10
:103ED00090E00E94AF0B80E090E0A6E9B3E48B870E
:103EE0009C87AD87BE876B857C858D859E8520E010
:103EF00030E04AE755E40E941F02DC01CB018F83CA
:103F00009887A987BA876F81788589859A8520E007
:103F100030E040E85FE30E94550488232CF481E000
:103F200090E09E838D833FC06F81788589859A85D7
:103F300020E03FEF4FE757E40E94F50318164CF5D9
:103F40006B857C858D859E8520E030E040E251E4E4
:103F50000E941F02DC01CB01BC01CD010E9449007F
:103F6000DC01CB019E838D830FC080E991E09C83AF
:103F70008B838B819C810197F1F79C838B838D814F
:103F80009E8101979E838D838D819E81009769F725
:103F900014C06F81788589859A850E944900DC016B
:103FA000CB019E838D838D819E819A8389838981B4
:103FB0009A810197F1F79A8389830E94280D8FECEB
:103FC00090E00E94AF0B80E061E00E94C40C85EDA0
:103FD00090E00E94AF0B8FEF888B03C00E946C13A0
:103FE000888B88898F3FD1F381E08F8788898133DF
:103FF00021F08889823309F064CF8889813309F000
:1040000044C082E00E9491110E94280D85EE90E04C
:104010000E94AF0B80E061E00E94C40C80EF90E052
:104020000E94AF0B8FEF888B0CC00E946C13888BA3
:104030008889813351F08889823339F088898333C4
:1040400021F080911D02882381F38889282F30E098
:104050003A8B298B89899A898233910569F029895C
:104060003A892333310559F089899A898133910539
:1040700041F40E94C21805C00E94AB1A02C00E94FF
:10408000AC1982E00E94C11117CF8889823309F0F0
:1040900013CF82E00E9491110E94141D82E00E94C1
:1040A000C1110ACF629FD001739FF001829FE00D82
:1040B000F11D649FE00DF11D929FF00D839FF00DA7
:1040C000749FF00D659FF00D9927729FB00DE11D53
:1040D000F91F639FB00DE11DF91FBD01CF01112430
:1040E000089597FB092E05260ED057FD04D014D055
:1040F0000AD0001C38F450954095309521953F4FDB
:104100004F4F5F4F0895F6F79095809570956195A4
:104110007F4F8F4F9F4F0895A1E21A2EAA1BBB1B02
:10412000FD010DC0AA1FBB1FEE1FFF1FA217B30783
:10413000E407F50720F0A21BB30BE40BF50B661F99
:10414000771F881F991F1A9469F76095709580955D
:1041500090959B01AC01BD01CF0108952F923F9234
:104160004F925F926F927F928F929F92AF92BF9287
:10417000CF92DF92EF92FF920F931F93CF93DF9333
:10418000CDB7DEB7CA1BDB0B0FB6F894DEBF0FBE90
:10419000CDBF09942A88398848885F846E847D84DD
:1041A0008C849B84AA84B984C884DF80EE80FD80DF
:1041B0000C811B81AA81B981CE0FD11D0FB6F89455
:0E41C000DEBF0FBECDBFED010895F894FFCF16
:1041CE00456E746572204F7065726174696F6E739F
:1041DE0000456E746572204E756D62657200456E97
:1041EE00746572204E756D6265727300456E7465EE
:1041FE007220006F7065726174696F6E004D61742C
:10420E0068204572726F7200436F6E76657274200D
:10421E0046726F6D3A00436F6E7665727420546FFE
:10422E003A0057726F6E672043686F69636500507E
:10423E007265737300312D53696D706C6520322D6C
:10424E004261736500507265737320312D496E00A3
:10425E00322D506F73742020332D50726500000084
:10426E000000000000000001020203030303040427
:10427E0004040404040405050505050505050505E6
:10428E0005050505050506060606060606060606C6
:10429E0006060606060606060606060606060606B0
:1042AE000606060606060707070707070707070796
:1042BE000707070707070707070707070707070780
:1042CE000707070707070707070707070707070770
:1042DE000707070707070707070707070707070760
:1042EE000707070707070808080808080808080846
:1042FE000808080808080808080808080808080830
:10430E00080808080808080808080808080808081F
:10431E00080808080808080808080808080808080F
:10432E0008080808080808080808080808080808FF
:10433E0008080808080808080808080808080808EF
:10434E0008080808080808080808080808080808DF
:10435E0008080808080808080808080808080808CF
:10436E000808080808083738392F3435362A31320C
:06437E00332D41303D2B00
:00000001FF
